:100000003EC058C057C056C0DEC154C053C052C0D5
:1000100051C050C04FC04EC04DC04CC04BC04AC074
:1000200049C080C064C066C068C06AC06CC06EC091
:1000300070C072C074C07BC07AC079C078C077C00D
:1000400076C075C074C073C072C071C070C06FC01C
:100050006EC06DC06CC06BC06AC069C068C067C04C
:1000600066C065C064C063C062C061C060C05FC07C
:100070005EC05DC05CC05BC05AC059C056C0112490
:100080001FBECFE5D2E0DEBFCDBF10E0A0E6B0E0FE
:10009000EEE1FFE002C005900D92A236B107D9F75C
:1000A00020E0A2E6B0E001C01D92A837B207E1F758
:1000B000DBD233C7A5CFE199FECF9FBB8EBB6DBB13
:1000C0008CB384608CBB8CB382608CBB0895E19947
:1000D000FECF9FBB8EBB8CB381608CBB8DB308956C
:1000E0008E32910520F5FC01EF5EFF4F099489EFF8
:1000F0008BBB089584EA8BBB089580EB8BBB08957E
:1001000089E98BBB089582E98BBB089582E88BBB9C
:10011000089588EF8BBB089580E88BBB089580E934
:100120008BBB089580EC8BBB08958FEB8BBB089540
:1001300010BC8CE089B988E08AB98AB180688AB934
:100140008BB182608BB986E880BD08955D9BFECF40
:100150008CB908958EB588608EBD89B7806489BFDB
:100160008FE08BBD82E48ABD8EB584608EBD08951C
:10017000CF93DF93FC01AB019C01ADECBCECC1D68D
:100180009695879596958795969587959C01220FCC
:10019000331F880F991F880F991F880F991F820F8F
:1001A000931F9F01281B390B30936D0020936C0027
:1001B0009F01A7D6EC01D695C795D695C795D6953C
:1001C000C7959E019ED69695879596958795969507
:1001D00087959C01220F331F880F991F880F991F45
:1001E000880F991F820F931F9E01281B390B309394
:1001F0006F0020936E009F013695279536952795C1
:10020000ABE7B4E17ED6EC01D695C7959E01ADEC87
:10021000BCEC77D696958795969587959695879514
:100220009C01220F331F880F991F880F991F880F79
:10023000991F820F931F9E01281B390B3093710069
:10024000209370009F013695279536952795369512
:100250002795A5ECB0E255D6FC01F295E295EF703A
:10026000EF27FF70EF279F01ADECBCEC4AD69695C7
:10027000879596958795969587959C01220F331FB4
:10028000880F991F880F991F880F991F820F931F3E
:100290009F01281B390B30937300209372009A0141
:1002A00030D69695879596958795969587959C01D6
:1002B000220F331F880F991F880F991F880F991FCE
:1002C000820F931F9A01281B390B309365002093EE
:1002D00064009A0116D6FC01F695E795F695E79528
:1002E000F695E7959F010DD69695879596958795F6
:1002F000969587959C01220F331F880F991F880FB1
:10030000991F880F991F820F931F9F01281B390B7C
:1003100030936700209366009A01369527953695AD
:100320002795ABE7B4E1EDD5FC01F695E7959F0184
:10033000ADECBCECE6D59695879596958795969508
:1003400087959C01220F331F880F991F880F991FD3
:10035000880F991F820F931F9F01281B390B309321
:100360006900209368009A01369527953695279560
:1003700036952795A5ECB0E2C4D5AC0152954295CF
:100380004F7045275F7045279A01ADECBCECB9D59D
:100390009695879596958795969587959C01220FBA
:1003A000331F880F991F880F991F880F991F820F7D
:1003B000931F9A01281B390B30936B0020936A001E
:1003C000DF91CF9108951F920F920FB60F921124D3
:1003D0002F933F934F935F936F937F938F939F934D
:1003E000AF93BF93EF93FF9380916300882349F00D
:1003F00080916400909165000197909365008093CF
:10040000640080916200882349F080916C00909193
:100410006D00019790936D0080936C008091640053
:100420009091650099237CF480916600909167001B
:100430000197909367008093660089E090E0909325
:100440006500809364008091660090916700992315
:100450007CF4809168009091690001979093690005
:100460008093680085E090E0909367008093660039
:10047000809168009091690099237CF480916A00D2
:1004800090916B00019790936B0080936A0089E0D4
:1004900090E0909369008093680080916C00909147
:1004A0006D0099237CF480916E0090916F0001970C
:1004B00090936F0080936E0089E090E090936D00C0
:1004C00080936C0080916E0090916F0099237CF472
:1004D00080917000909171000197909371008093CA
:1004E000700085E090E090936F0080936E008091A3
:1004F00070009091710099237CF48091720090912A
:1005000073000197909373008093720089E090E0EC
:1005100090937100809370008091720090917300AD
:10052000A8EEB3E08A9F90018B9F300D9A9F300D0B
:100530001124409170005091710064E6649FC001E5
:10054000659F900D1124820F931F70916E00272FCD
:1005500030916F00220F331FA901440F551F440F24
:10056000551F240F351F820F931F40916C0050912F
:100570006D00840F951F9093770080937600809193
:100580006A0090916B008A9FF0018B9FF00D9A9FFB
:10059000F00D11242091680030916900629FC00124
:1005A000639F900D1124E80FF91F809166009091D0
:1005B0006700DC01AA0FBB1F9C01220F331F220F13
:1005C000331F220F331FCD01820F931F8E0F9F1FEA
:1005D0002091640030916500820F931F9093750005
:1005E00080937400440F642F660F660F460F642FCC
:1005F000670F81E090E05FDD60917000660F862FED
:10060000880F880F680F80917200680F82E090E079
:1006100052DD60916400660F862F880F880F680F87
:1006200080916600680F83E090E045DD609168008E
:10063000660F862F880F880F680F80916A00680FF9
:1006400084E090E038DDFF91EF91BF91AF919F91F1
:100650008F917F916F915F914F913F912F910F906B
:100660000FBE0F901F90189563DD74DD109263002C
:10067000109262008FEF84BB8ABB80E787BB8FE05C
:1006800088BB81B3826081BB81E090E020DDD82F00
:1006900082E090E01CDDC1E0D111C0E091E0811169
:1006A00090E0C92383E090E012DD91E0811190E0B9
:1006B000C92384E090E00BDD91E0811190E0CC2330
:1006C00081F0992371F08CED95E090937700809301
:1006D000760090937500809374006CED75E048DDB2
:1006E00051C181E090E0F3DC14E6189FE001112491
:1006F00082E090E0ECDCC80FD11DD0937700C0936E
:10070000760083E090E0E3DC189F7001112484E020
:1007100090E0DDDCE80EF11C40917600509177000E
:100720009A01ADECBCECEDD35C01B694A794B69401
:10073000A794B694A794C501880F991FAA0CBB1C57
:10074000AA0CBB1CAA0CBB1C8A0D9B1D5A01A81A23
:10075000B90AD7D3AC015695479556954795569506
:1007600047959A01CED36C01D694C794D694C7947A
:10077000D694C794C601880F991FCC0CDD1CCC0CF5
:10078000DD1CCC0CDD1C8C0D9D1D6A01C81AD90A1C
:10079000B8D3FC01F695E795F695E795F695E795BC
:1007A0009F01AFD3AC015695479556954795569501
:1007B0004795CA01880F991F440F551F440F551FB5
:1007C000440F551F840F951FAF01481B590B99D338
:1007D000EC01D695C795D695C795D695C7959E0138
:1007E00090D39695879596958795969587959C0134
:1007F000220F331F880F991F880F991F880F991F89
:10080000820F931F9E01281B390BC901C8EED3E04C
:10081000AC9EF001AD9EF00DBC9EF00D11241C9D10
:1008200090011D9D300D1124E20FF31F9A01220F3C
:10083000331F440F551F440F551F440F551F240FDE
:10084000351F2E0F3F1FFC01E20FF31FF0937700BF
:10085000E0937600970155D36C01D694C794D69453
:10086000C794D694C794C601880F991FCC0CDD1C81
:10087000CC0CDD1CCC0CDD1C8C0D9D1D6701C81A39
:10088000D90A3FD3AC01569547955695479556954D
:1008900047959A0136D37C01F694E794F694E79451
:1008A000F694E794C701880F991FEE0CFF1CEE0C1D
:1008B000FF1CEE0CFF1C8E0D9F1D7A01E81AF90A31
:1008C00020D35C01B694A794B694A794B694A79449
:1008D000950117D3AC015695479556954795569572
:1008E0004795CA01880F991F440F551F440F551F84
:1008F000440F551F840F951FA501481B590B01D3A9
:100900005C01B694A794B694A794B694A794950165
:10091000F8D29695879596958795969587959C019B
:10092000220F331F880F991F880F991F880F991F57
:10093000820F931F9501281B390BC901CC9EB00172
:10094000CD9E700DDC9E700D11241E9D90011F9D8B
:10095000300D1124620F731F9A01220F331F440FB1
:10096000551F440F551F440F551F240F351F260FC9
:10097000371FBC01620F731F709375006093740082
:10098000CF01F6DB7894B09905C081E080936300D5
:1009900010926200B19905C01092630081E08093CB
:1009A00062002091600086B38695869591E0892744
:1009B00081702817F8F48CED95E090937700809380
:1009C0007600909375008093740081E080936000BE
:1009D00010926300109262006CED75E08CED95E072
:1009E000C7DB3FE38DE093E0315080409040E1F77A
:1009F00000C000002091600086B38695869591E046
:100A0000892781702223F1F08823E1F084EF91E0BF
:100A10009093770080937600909375008093740094
:100A200010926000109263001092620064EF71E017
:100A30009FDB2FE33DE083E0215030408040E1F731
:100A400000C00000B39987C180917200805D7EDB99
:100A500080917000805D7ADB80916E00805D76DB36
:100A600080916C00805D72DB8AE370DB80916A00AC
:100A7000805D6CDB80916800805D68DB8091660042
:100A8000805D64DB80916400805D60DB80E25EDB22
:100A900081E090E01CDB14E6189FE001112482E065
:100AA00090E015DBC80FD11DD0937700C09376007E
:100AB00083E090E00CDB189F7001112484E090E04B
:100AC00006DBE80EF11C40917600509177009A0108
:100AD000ADECBCEC16D25C01B694A794B694A79486
:100AE000B694A794C501880F991FAA0CBB1CAA0C29
:100AF000BB1CAA0CBB1CA80EB91E2A193B09590124
:100B00009A01FFD1AC015695479556954795569554
:100B100047959A01F6D16C01D694C794D694C794A0
:100B2000D694C794C601880F991FCC0CDD1CCC0C41
:100B3000DD1CCC0CDD1CC80ED91ECA018C199D0908
:100B40006C01DFD1FC01F695E795F695E795F695F2
:100B5000E7959F01D6D1AC01569547955695479597
:100B600056954795CA01880F991F440F551F440F8A
:100B7000551F440F551F480F591F241B350BA90142
:100B80009F01BFD1EC01D695C795D695C795D6954F
:100B9000C7959E01B6D1969587959695879596951A
:100BA0008795FC01EE0FFF1F880F991F880F991F73
:100BB000880F991F8E0F9F1F281B390BC901C8EE84
:100BC000D3E0AC9EF001AD9EF00DBC9EF00D112463
:100BD0001C9D90011D9D300D1124E20FF31FBA01E1
:100BE000660F771F9A01220F331F220F331F220F28
:100BF000331FAB01420F531F4E0F5F1FFC01E40F69
:100C0000F51FF0937700E093760097017AD16C019D
:100C1000D694C794D694C794D694C794C601880F27
:100C2000991FCC0CDD1CCC0CDD1CCC0CDD1CC80EC3
:100C3000D91EC7018C199D096C0163D1AC01569571
:100C4000479556954795569547959A015AD17C01F7
:100C5000F694E794F694E794F694E794C701880F26
:100C6000991FEE0CFF1CEE0CFF1CEE0CFF1CE80E97
:100C7000F91E2E193F0979019A0143D15C01B694FE
:100C8000A794B694A794B694A79495013AD1AC01D1
:100C9000569547955695479556954795CA01880F9D
:100CA000991F440F551F440F551F440F551F480FE0
:100CB000591FC501841B950BAC0123D15C01B6946F
:100CC000A794B694A794B694A79495011AD1969533
:100CD000879596958795969587959C01220F331F4A
:100CE000BC01660F771F660F771F660F771F620FB5
:100CF000731FC501861B970BCC9EB001CD9E700D56
:100D0000DC9E700D11241E9D90011F9D300D11243D
:100D1000620F731FDA01AA0FBB1F9A01220F331F44
:100D2000220F331F220F331FAD01420F531F460FF7
:100D3000571FBC01640F751F70937500609374009A
:100D4000CF0116DA9FE52AEE30E091502040304086
:100D5000E1F700C000008091760090917700409705
:100D600020F488B3806188BB03C088B38F7E88BBC2
:100D70008091740090917500409720F488B3806250
:100D800088BB03C088B38F7D88BB81E0209176004B
:100D9000309177002530310508F080E081110BC0DB
:100DA00081E020917400309175002530310508F004
:100DB00080E0882321F088B3806488BB03C088B3B7
:100DC0008F7B88BB8091760090917700892B91F47E
:100DD0008DE290E090937300809372009093710085
:100DE0008093700090936F0080936E0090936D00DD
:100DF00080936C008091740090917500892B91F420
:100E00008DE290E090936B0080936A00909369006C
:100E100080936800909367008093660090936500CC
:100E20008093640081E085BB809172009091730093
:100E300057D989EF90E00197F1F700C0000082E0F8
:100E400085BB80917000909171004AD98BB3805816
:100E50008BBB89EF90E00197F1F700C0000084E0C0
:100E600085BB80916E0090916F003AD989EF90E038
:100E70000197F1F700C0000088E085BB80916C000D
:100E800090916D002DD989EF90E00197F1F700C0A6
:100E9000000080E185BB80916A0090916B0020D9B1
:100EA00089EF90E00197F1F700C0000080E285BB78
:100EB000809168009091690013D98BB380588BBBE7
:100EC00089EF90E00197F1F700C0000080E485BB56
:100ED000809166009091670003D989EF90E00197B7
:100EE000F1F700C0000080E885BB8091640090911C
:100EF0006500F6D889EF90E00197F1F700C0000097
:100F000042CDA29FB001B39FC001A39F01D0B29F69
:0E0F1000700D811D1124911D0895F894FFCFDE
:020F1E000100D0
:00000001FF
